:020000041000EA
:1000000000B5324B212058609868022188439860DF
:10001000D860186158612E4B002199600221596106
:100020000121F02299502B49196001219960352056
:1000300000F044F80222904214D00621196600F024
:1000400034F8196E01211966002018661A6600F04E
:100050002CF8196E196E196E052000F02FF8012189
:100060000842F9D1002199601B49196000215960AB
:100070001A491B48016001219960EB211966A021F2
:10008000196600F012F800219960164914480160C1
:100090000121996001BC002800D000471248134993
:1000A000086003C880F30888084703B5996A0420EC
:1000B0000142FBD001200142F8D103BD02B5186610
:1000C0001866FFF7F2FF186E186E02BD00000240BE
:1000D000000000180000070000035F00212200005C
:1000E000F4000018222000A00001001008ED00E03C
:1000F00000000000000000000000000074B24E7A12
:1001000000200420F7010010C3010010C5010010F9
:10011000C1010010C1010010C1010010C101001097
:10012000C1010010C1010010C1010010C701001081
:10013000C1010010C1010010C9010010CB01001065
:10014000CD010010CD010010CD010010CD01001037
:10015000CD010010CD010010CD010010CD01001027
:10016000CD010010CD010010CD010010CD01001017
:10017000CD010010CD010010CD010010CD01001007
:10018000CD010010CD010010CD010010CD010010F7
:10019000CD010010CD010010CD010010CD010010E7
:1001A000CD010010CD010010CD010010CD010010D7
:1001B000CD010010CD010010CD010010CD010010C7
:1001C00000BE00BE00BE00BE00BE00BEEFF3058054
:1001D000103800BEF2EB8871DCF2041004F3041056
:1001E0003402001090A31AE700201F49086006C8D7
:1001F00081F3088810471D48006800282FD10DA4FE
:100200000ECC002902D000F012F8F9E71849194A7B
:10021000002000E001C19142FCD1174988471749ED
:1002200088471749884700BEFDE701C901C29A42C5
:10023000FBD3704704F30410C00000200811002015
:100240004C03051000000420000004204C0305109E
:10025000001004200010042000000000704709482E
:1002600000F072FE0047000008ED00E0000000D042
:100270002811002078D800201D110110090300105A
:10028000111201105756000006005250ABB36053D4
:10029000C875011006005250861C0302D875011063
:1002A000060052505422A29DE075011005005250E4
:1002B000DE65F4684C030510F8B5C04606480749EA
:1002C000091A8B10C90FC91810B5491003D0044B77
:1002D000002B00D0984710BD081100200811002005
:1002E00000000000054B10B5002B03D00449054861
:1002F00000E000BFFFF7E2FF10BDC04600000000B5
:10030000D8C60020C05A011070B513F01DF914486A
:100310000CF09CF800281FD1124813F017F80CF0CD
:1003200037F8114C11492000114B124A0CF03EF8DD
:1003300000280CD101210CF091F80F4D210028006C
:1003400013F0F6F8FA20800001F0A2FEF6E70B4861
:1003500012F0FCFF012070BD094812F0F7FFF9E729
:100360004E5A0000D85A01108C0F0020800F002038
:100370001027000004004000F85A0110E45A011050
:10038000C05A011010B507F07BFF10BDF8B501236E
:100390000B72040007F0A8FF0500431C0BD1104BA3
:1003A000186859680F4B22689860D96019002000BE
:1003B00052699047F8BD01F057FFFA2206000F007E
:1003C000002328000021920012F096FE802380195D
:1003D00079411B069942E5D3012003494042E1E7F8
:1003E000B8760110980F0020FFFFFF7F70B5094D10
:1003F00004002B78002B08D00123074920000B7242
:100400002368DB699847012070BD02F0D1FA01230F
:100410002B70F1E766D80020B00F002010B5040063
:10042000036804499B6998472368200002491B6AB6
:10043000984710BD980F0020B00F00200020704793
:100440007047C04610B501F00FFF002905D0FA2211
:100450000023920012F020FB10BDFA21890012F057
:10046000DDFAF9E783680830002B04D107E01800B3
:100470001B68002B03D09942F9D1002003E0002330
:10048000016001200B6070478368002B08D08B420D
:1004900002D107E0994206D018001B68002BF9D161
:1004A0000020704708300B6803600120F9E7C04660
:1004B00043680430002B04D107E018001B68002BB0
:1004C00003D09942F9D1002003E00023016001200C
:1004D0000B6070474368002B08D08B4202D107E0C5
:1004E000994206D018001B68002BF9D100207047F4
:1004F00004300B6803600120F9E7C046F0B55746A9
:10050000DE464646C0B53E4B82B05C681B68009331
:10051000019483688246002B2CD0082353449B46C9
:1005200001F0A2FE53469B6804000D005F46002BBD
:1005300020D000221E0094469846B268F36820003E
:100540002900801A9941002902DB14001D00BC46D5
:1005500037003668002EF0D162464346002A48D064
:10056000116850460B6813604B68984753469B6868
:10057000002BD5D153465C68002C29D00025564667
:10058000237A002B31D02100636825723000984710
:100590002468002CF4D1B168B246002918D0009C20
:1005A000019D0E0003E004000D00002E0ED033006C
:1005B00022009868D9682B00121A8B413668002BEC
:1005C000F1DCF2D1002AEED1002EF0D10094019599
:1005D000009B019C5246180021001361546102B037
:1005E000E0BCBB46B246A846F0BD2468002CC7D18B
:1005F000D1E7190053465C68002CBFD1CFE7C04655
:10060000B8760110024B18688007C00F7047C046CB
:1006100000C0064070B50F4C0F4D104A24184D41D4
:10062000A900A00F0843A90F69400D4B604012F0CC
:1006300063FD4A01C30E1343CA0E58405140094B93
:10064000094A12F059FD4A00C30F1343CA0F58401C
:10065000514070BD157C4A7FB979379EB9E5E41CDD
:100660006D4758BFBB49D094EB113113F0B5046806
:100670004568060023002A00C6468068F1680343E7
:100680000A4300B5134304D101F0EEFD03000B4310
:10069000FAD02A06230A6040270613432A0A3A435F
:1006A000070CBC4669404B40984663460F041F4305
:1006B000424003045A4043467B4032607360C20E9E
:1006C0004B011343C90E40010843B360A10FAB00B7
:1006D0000B43A20012196B41F060D901500E084380
:1006E000D201590E11430C0005004B0FC1001943F4
:1006F000E0000019694180BCB846F0BDF0B5DE46A7
:1007000057464E464546E0B5BC4991B00891097838
:10071000002900D1E5E00CAB9846B94BB94C0293E7
:10072000B94BBA4E059310220599404612F040FD90
:10073000B74B06931B78DBB2079301F095FDFFF7EB
:1007400069FF0C9B4340089343465B684B40099309
:10075000B04B9B69DB0433D5AF4BDA6BE02313401E
:10076000402B2DD0EFF305839A46AC4B2768994672
:1007700000239B463300564665689A463800290098
:10078000002E1AD001F0AEFDEFF3108272B64B4688
:100790001B68002BFBD0BFF35F8F2368BB4212D0D6
:1007A000BFF35F8F4B465946196082F31088276864
:1007B000656838002900002EE4D101F007FCE3E76A
:1007C00010F042FDCEE76368AB42E9D1914B1500D2
:1007D000DF6901F049FD0A220023801859410B000E
:1007E00080215646020009068B4202D301228C4B1F
:1007F000524201200CC43268736892185B41384041
:10080000104300240092019330607360BFF35F8F48
:10081000824A146085F310880199FFF7FBFE434676
:100820009B68424658404346DB6890604B40D3602B
:100830007C4A029B94461B787B4ADB0063449868A1
:1008400090424CD00021FFF7E5FE089B43400C93FB
:10085000099B4B40190043465960EFF3108572B66F
:100860006E4A1368002BFCD0BFF35F8F069B079A7C
:100870001B78934214D005980C9A036841685A403B
:1008800043465B680C9242464B40536092688368D3
:10089000C1685A404346DB684B4041468A60CB60A2
:1008A0004046FFF7E3FE102206000C000598414683
:1008B00012F07EFC069A13780133DBB21370BFF39B
:1008C0005F8F0022554B1A6085F31088300021009D
:1008D00011B0F0BCBB46B246A946A046F0BD9C6034
:1008E000B0E7524D524CAC4620686168514DA2466B
:1008F000A84600920193850D8F0286022F43340093
:100900003D0024184D41A30E9946AB0101934B467F
:10091000019A1A43A30100930192009C019D241A9D
:100920008D412000644608CC290002930023A44690
:100930000393029C039D00196941C445DBD15446D1
:1009400020606160FFF766FE0CAB98460C9B43404D
:10095000029343465B680AA84B40059300F02CF9CC
:100960000A980B99FFF756FE43469B68434006934F
:100970004346DB684B400793264B9B69DB0400D45E
:10098000F4E0254BDA6BE0231340402B00D1EDE07F
:10099000EFF3058300249A46002340250093019439
:1009A0001E4B2E0099465546C346164C0023B046B2
:1009B00027682E0065689A4638002900002E1AD054
:1009C00001F090FCEFF3108272B64B461B68002BCF
:1009D000FBD0BFF35F8F2368BB422DD0BFF35F8F87
:1009E0004B465146196082F31088276865683800C5
:1009F0002900002EE4D101F0E9FAE3E770D80020E5
:100A000061D80020A0120020181100200811002039
:100A100062D800200000064000800040300100D075
:100A2000FFFFFF7F00000340FFFFFF00001C0420CA
:100A300010110020002004206368AB42CED13500A5
:100A400046469046009A019B1000190080185941B3
:100A50004B4BDA690123134003430093019101F0EA
:100A600003FC0A220023801859410B008021020058
:100A700009068B4202D30122424B5242226063603C
:100A8000012E5ED10098019935003F4E47463060F7
:100A90007160D846BFF35F8F3C4B994600234A46AE
:100AA000136087F31088FFF7B5FD029B43400C935A
:100AB000059B4B4019005B46596001F0D5FBFFF7E1
:100AC000A9FD069B434018005B469860079B4B407E
:100AD00019005B46D960EFF3108772B64B461B686E
:100AE000002BFBD0BFF35F8F089B1B78002B31D10D
:100AF000274BDA681F2A3CD05A691F2A3AD0DA6994
:100B00001F2A39D05B6A03251F2B33D010F09CFBC2
:100B1000FF25FF231F4AED0013701F4B02929C46D6
:100B2000052365446B604046FFF7A0FD1B4B102278
:100B300018004146059312F03BFB0123089A1370FD
:100B40000CE0BFF35F8F00234A46136088F31088E0
:100B5000013E2BE70F4B0293104B0593BFF35F8FC2
:100B600000220A4B1A6087F31088DCE510F06CFB5A
:100B70000EE70025EBB2CDE70225EBB2CAE7C0468F
:100B800000000640FFFFFF7F08110020300100D069
:100B90000000034061D80020080003401811002025
:100BA00010B5FFF7ABFD10BD10B5024800F0E0F83E
:100BB00010BDC046D8D6002010B50822014912F059
:100BC000F7FA10BDD8D6002030B54B1E012900D150
:100BD000A7E0664A11780D092C0030349F2900D90E
:100BE000A2E00470012B00D1BEE00F211478214057
:100BF0000C003034092900D998E04470022B00D150
:100C0000B2E054782509290030319F2C00D990E0BA
:100C10008170032B00D1A7E00F2121400C0030345C
:100C2000092900D987E0C470042B00D19CE0947896
:100C30002509290030319F2C00D97FE00171052B57
:100C400000D191E00F2121400C003034092900D956
:100C500076E04471062B00D186E0D478250929007E
:100C600030319F2C00D96EE08171072B00D17BE0E1
:100C70000F2121400C003034092966D8C471082B9B
:100C800000D171E014792509290030319F2C5FD8FB
:100C90000172092B68D00F2121400C003034092942
:100CA00058D844720A2B5FD0547925092900303175
:100CB0009F2C52D881720B2B56D00F2121400C0053
:100CC000303409294BD8C4720C2B4DD094792509A6
:100CD000290030319F2C00D9073101730D2B43D0EF
:100CE0000F2121400C003034092901D937310C0083
:100CF00044730E2B38D0D1790C09220030329F2951
:100D000000D9073282730F2B2ED00F220A40110018
:100D10003731092A01D830321100C173102B23D08A
:100D200010300023037030BD07345AE737310C0010
:100D300063E707316CE737310C0074E707317DE773
:100D400037310C0085E707318EE737310C0095E726
:100D500007319DE737310C00A3E70731AAE73731A8
:100D60000C00C4720C2BB1D1C018DAE7D8D6002021
:100D700010B588B004000D220021684612F012FA66
:100D80000D22002104A812F00DFA4B236A46684692
:100D9000137004A90D2214F013FE1521082220005F
:100DA000694412F005FA08B010BDC046EFF3108098
:100DB00072B6034A1368002BFCD0BFF35F8F7047F5
:100DC0002C0100D0BFF35F8F0022024B1A6080F32A
:100DD000108870472C0100D070B5EFF3108C72B6FC
:100DE0000D4D2B68002BFCD0BFF35F8F0724CB0881
:100DF000C618C05C01230C40A3401C000440034201
:100E000007D118433070BFF35F8F2C608CF31088CC
:100E100070BD100010F000FA2C0100D0F8B5474664
:100E2000CE46884680B5EFF3108C72B6214D2C6803
:100E3000002CFCD0BFF35F8F9A422CD8D408072730
:100E4000055D061901241740BC402C421FD0072124
:100E50000127894609E0D408055D06194C4639008A
:100E60001440A1400C00294211D001329342F2D229
:100E700001204042BFF35F8F00220E4B1A608CF3BB
:100E8000108800280FDBC0BCB946B046F8BD25432A
:100E900010003570EEE7BFF35F8F00232B608CF3FB
:100EA0001088012040424346002BECD0089810F0F7
:100EB000B3F9C0462C0100D030B5EFF3108C72B6F8
:100EC0000A4C2368002BFCD0BFF35F8F072301225D
:100ED0000B409A40CD08435D93434355BFF35F8F6A
:100EE000002323608CF3108830BDC0462C0100D055
:100EF0000021044B044ABFF35F8F02C39342FAD12F
:100F00007047C046000100D0800100D0044A10782C
:100F1000431CDBB2172B00D9102313707047C04657
:100F2000C00F002010B5064B064C82B001000093A4
:100F300018221F232000FFF771FF02B010BDC0462A
:100F40000C5B0110301A0020142310B50100188822
:100F500004331B88984710BD162310B5010018886C
:100F600002331B88984710BDF8B54746CE4680B57A
:100F70000F1E19D0142399460433040000250126BE
:100F800098464B461888434621681B88984701C4F9
:100F9000431E9841013540420640AF42F1D1300036
:100FA000C0BCB946B046F8BD0126F8E710B50C2024
:100FB00082B001F093FCFFF725FB002810D08B4B8B
:100FC0008B488B498B4A186059609860D9601861CA
:100FD00059619861D961186259625A6202B010BDB4
:100FE000854CA06701F0D0FC0122844B1A60636C31
:100FF000012BFCD10322824B1A607F4A936B012B99
:10100000FCD1013301217F4A7F480093043301F072
:1010100013FC05237D4A009301217D4801F00CFC5F
:101020007C4B5A68FF2A02D8802252005A608022E4
:10103000734B6E4C12011A602169002907D0606958
:1010400011F0ECFC013043001B18033BFDD2E02201
:10105000704B714819680A400260022219685140B9
:1010600001320A40042102609A681142FCD08021BA
:101070006A4A09011160802252005A60684B23615C
:10108000684B5968FF2900D85A60032201215B4B45
:101090001A60644A93681942FCD0E0231068034048
:1010A00061480360126803234A40022113405D4AED
:1010B000036093681942FCD080215C4B09011960E0
:1010C00080215B4B4900516063615A4B5A68FF2A8B
:1010D00000D859608022584B12011A60E16900293A
:1010E00007D0606911F09AFC013043001B18033BE4
:1010F000FDD2E0234F4A11680B4050490B6080211C
:101100004F4B090119608021394B49005160E3615F
:101110004C4B5A68FF2A00D8596080224A4B120172
:101120001A60216A002907D0606911F077FC01304C
:1011300043001B18033BFDD2E023424A11680B40D9
:1011400042490B608021424B0901196080235B00FA
:1011500053608022264BD20223623E4B5968914253
:1011600000D25A6080223C4B12011A60616A002949
:1011700007D0606911F052FC013043001B18033B9B
:10118000FDD2E023334A11680B4034490B608021C3
:10119000334B090119608023DB025360154B6362F6
:1011A000304B5A68FF2A02D8802252005A608022AF
:1011B0002D4B12011A60A169002907D0606911F056
:1011C0002DFC013043001B18033BFDD2E023254AD0
:1011D00011680B4025490B608021254B09011960DE
:1011E00080235B005360124BA361F7E628110020B7
:1011F000006CDC021BB70000008000403CB00040E7
:1012000030B00040002F685900800240008C8647B3
:1012100000C00240308000403090004030A00040CC
:10122000001BB7003C8000403C9000403CA00040C8
:10123000405973075480004054B00040549000401F
:1012400054A000406080004060B0004060900040CA
:1012500060A000406C8000406CB000406C9000408A
:101260006CA000404880004048B0004048900040DA
:1012700048A00040014B8000C05870472811002052
:10128000094A10B594464024830063441A68C0009C
:101290006240803414408022520113431C60034B8F
:1012A0009C466044416010BD04C0014000400140C4
:1012B000074B80009C4660440368C90092000A43C3
:1012C0005A400C231A4080235B0103431A60704785
:1012D00004C00140084B80009C466044002905D0B2
:1012E000802302229B0103431A607047C02302221D
:1012F0009B0103431A60F8E704C00140D0231B069A
:101300001B6830B50500584243412F205B428343A0
:101310000D48EC08844607202840800081402000CA
:101320000A4D3C3063448000A40041511B19002A3F
:1013300004D0802292011343196030BDC022920173
:1013400013431960F9E7C0463041014000400140B5
:10135000D023F0B5C6461B0698461B680C4F9B0071
:101360001600FA5804000D0000B5104209D12900FA
:1013700014430D203200FC5000F09CF880BCB846AD
:10138000F0BD0FF061FF43461B689B00FA58EEE783
:10139000C4D6002010B504000D2000F085F9D0233C
:1013A0001B061B6802499B005A58A2435A5010BDA5
:1013B000C4D600200123D022834012069362936199
:1013C000094A40219446830063441A68C0004A4099
:1013D000803111408022520113431960034B9C4617
:1013E000052360444360704704C001400040014051
:1013F00001238340002904D0034A1360034A136089
:101400007047034A1360FBE780E200E000E100E080
:1014100080E100E001238340014A13607047C04629
:1014200000E200E0084B10309B688000C358002B9E
:1014300007D0064A00209B1A2F229A424041C0B290
:1014400070470020FCE7C04600ED00E0C40F00201C
:10145000024B10309B688000C058704700ED00E0E0
:1014600070B50D00EFF3108672B60F4A1368002BAB
:10147000FCD0BFF35F8F0D4B10309B6884001B596D
:101480000B4A934203D09D4201D00FF0DDFE074B83
:101490009B681D51BFF35F8FBFF35F8F0022024B2C
:1014A0001A6086F3108870BD240100D000ED00E0C2
:1014B000CD010010F0B557464E46DE464546E0B534
:1014C00085B0060000911700EFF3108B72B66A4AE0
:1014D0001368002BFCD0BFF35F8F0025674B5D576F
:1014E0009A46002D00DAA9E06B00654C01935B1968
:1014F0009B009846A146C1444B4652469B79103604
:101500001370604BB6009B6899590B1B2F2B33D976
:101510005D4B994200D0ACE0019B42469C465B4B40
:101520006544AD0063535A4B0232A218043B9B1A28
:101530001B05584A5B0D651913436B80564B0121FF
:10154000AB80FF23AB71009BEF71AB604B460B434D
:1015500019004C4B9B689951BFF35F8FBFF35F8FAE
:101560000022454B1A608BF3108805B0F0BCBB46D7
:10157000B246A946A046F0BD01200A008243D379B5
:101580008C46BB4231D84546130044491B1B5B4186
:101590005943090D3D4B63533D4B02356519043BDF
:1015A0005B1B1B053B4D5B0D2B43AA464D466B80D9
:1015B0000425AC465546E044131F44441B1B1B0541
:1015C0005B0D1D434B46997100999D80996049467A
:1015D000DF71334B01431360BBE75800C018800034
:1015E0002018C179B9422FD902000623D356002B07
:1015F000F3DA02932B4B61460393131D9A4604239F
:101600005B429C46E14450464B461B1A1B055B0D52
:101610009C46204B95719846634640460343938011
:10162000019B5A199200039BA418A380029B1C4A99
:10163000A371009B2260E771A3608AE70FF004FEAC
:10164000002553465D574FE7908802934005131DD0
:101650009A46031561469C464046D444634604308E
:101660002018181AE0230005400D1B0218430390B0
:10167000C5E70FF0E9FD4FE7240100D069D800204D
:10168000C40F002000ED00E0CD01001000A1FFFF1D
:10169000F40F002000E0FFFF01BDFFFFAAAA000039
:1016A0000148804701BD0000F0B5DE4657464E4672
:1016B0004546E0B50C0083B0EFF3108872B65D4A82
:1016C0001368002BFCD0BFF35F8F5B4B5B499A68BC
:1016D000030010339F00D5598D4239D0A5424AD01E
:1016E000574EAA1B2F2A33D8012292468240914698
:1016F0004846544A1268104001904846524A1060C9
:10170000BFF35F8FEFF305829346002A35D09342F3
:1017100001D00FF099FD2A0053469A439068844205
:1017200008D175E04B005B189B00F3189868A04245
:1017300034D01A00062151560029F3DA844253D0DE
:10174000019B002B26D04A46404B1A603D4B1A6045
:10175000394B9B68DD51BFF35F8FBFF35F8F002272
:10176000344B1A6088F3108803B0F0BCBB46B24615
:10177000A946A046F0BD0D00EAE72A0053469A4369
:1017800090688442D6D1062010561300002809DA4A
:101790000D0031E04A462C4B1A60D9E70620185656
:1017A000002822DB42001118890074188A46A168BB
:1017B0009960E179D971062161569971002925DB7B
:1017C000A488F11A6405241554440919E024090574
:1017D000490D24022143998013181D4A9B0011785A
:1017E000F31899711070ABE713005946002914D112
:1017F000FF3191711749918015490A789A71164AFB
:101800009B1B5B415A43120D0A7099E71349E2E7AB
:101810000620105613000028C4DA114A1149D21AC2
:10182000083A5002400D014399800F4952080A437B
:10183000DA8085E7240100D000ED00E0CD01001042
:10184000C40F002000E100E080E100E080E200E061
:1018500069D8002001BDFFFFAAAA000001BD000059
:10186000FE0F002000F0FFFF00F8FFFF032310B57C
:101870000400074A18409446C0009C43FC33834050
:101880006444226881409A4313000B43236010BDD7
:1018900000E400E070B5EFF3058101240443EFF3A9
:1018A000108C72B6214A1368002BFCD0BFF35F8FF7
:1018B0001F4B05001F4AED1A6D416A43120D1E4D64
:1018C0008900AE6852B27658A6421CD006215956FD
:1018D00091421CD012215956914222D01E215956B4
:1018E000914220D02A2159560324914210D0134B03
:1018F00019781A708171BFF35F8F00220B4B1A6049
:101900008CF3108870BDAB680D4C5C50EFE7002481
:101910006100091989005B18FF21997109499980B3
:10192000E5E70124F4E70224F2E7C046240100D0F1
:10193000C40F0020AAAA000000ED00E069D8002032
:10194000CD01001001BDFFFF054B064A1360064A9A
:10195000136053609360D360136153619361704768
:101960008080808000E400E004E400E01F2110B5E6
:10197000091A0248FFF7A0FA10BDC04675D800202A
:1019800010B5084B084C82B00100009300220523DB
:101990002000FFF743FA002801DB1F23181A02B0CA
:1019A00010BDC046285B011075D8002070B504003A
:1019B0000E001500FFF7AAFA0100200000F006F85B
:1019C000A680E580BFF35F8F70BDC046024B9C468A
:1019D00061448900016070474000003410B5040084
:1019E000FFF794FA01002000FFF7F0FFFF232371B7
:1019F000BFF35F8F10BDC04610B50400FFF786FA35
:101A000001002000FFF7E2FFFF23A380BFF35F8FF9
:101A100010BDC04610B504000120FFF783FA034B48
:101A2000C3189B002360BFF35F8F10BD40000034DC
:101A3000034B9C46614489000160BFF35F8F704790
:101A40004000003483680B4810B58446614462440A
:101A50001201090159189B185C684A6801209442D8
:101A600001D802D00020C0B210BD1A680B689A429B
:101A7000F9D8F7E7FFFFFF0F0A4B1968EFF3108063
:101A800072B60A68002AFCD0BFF35F8F1B68BFF3F1
:101A90005F8F00221A6080F3108840BF0020002171
:101AA0007047C046E8D70020F8B5574645464E4631
:101AB000DE46E0B598460CAB1C780DAB1B780700F2
:101AC00091469A460568002C59D1AC7B002C3BD03E
:101AD000660029683619033E89194B78AB73002BD1
:101AE00000D1EB7300238B704B700B702D4BE21801
:101AF000BB6812019B184A461A6042465A600A9A0D
:101B00009A600B9ADA6000238B704B700B706B7BC2
:101B10009B46002B26D022006B685946A868984740
:101B20005B465B005B442A68033B002812D05846A2
:101B30009619B070D118D35C002B00D073705B463F
:101B40000C706B735C450ED0F0BCBB46B246A94628
:101B5000A046F8BDD3189C709119925D002A1CD143
:101B60005B460B706C734A464346387D00F010FCB0
:101B7000051E0AD10E9B002BE6D01D70E4E766001F
:101B800029683619033E8919B0E75346002BF1D175
:101B90002100386800F014FEECE75A705B460B70C9
:101BA0006C73E0E7FFFFFF0FF0B5DE4657464E4689
:101BB00045460023E0B58BB00893684B8200D458AB
:101BC00000239B46099000F04FFB02000B00606869
:101BD000EFF3108A72B6564601680029FCD0B2466F
:101BE000BFF35F8F21684F7B8C46002F2ED0A568F6
:101BF0005B49A9467918090189444946086849683A
:101C000005000E00AD1A9E41002E5FDD02000B00A4
:101C1000099800F0BDFB002300229946002306929C
:101C20000793002398466368BFF35F8F5A461A6094
:101C30008AF310884346002B12D10028C3D10BB081
:101C4000F0BCBB46B246A946A046F0BD0023002228
:101C50009946002306920793002300209846E2E766
:101C6000089B494618023843C047626805000E00C9
:101C7000EFF3108A72B61368002BFCD0BFF35F8FAE
:101C8000002E41DB2B00334302D02369002B56D1B9
:101C90002368D97B002905D01A68480041185218DA
:101CA000033A57709A7B002A00D19F73DF73E26872
:101CB000013FD35D0133D3555B4623616368BFF3B6
:101CC0005F8F5A461A608AF310887CE7002E02D193
:101CD000002D00D09AE70021604600F0EFFC4B4653
:101CE0001A685B68069207934B469B6898464B467A
:101CF000DB689946E368DB19013B1B7808931B02FC
:101D00000343236100208EE72369002BC0D0069A8D
:101D1000079B8021521BB34109068B4202D301224B
:101D2000104B524200210491013103914946019127
:101D30004146200002970091FFF7B6FEBCE700F095
:101D400093FA2A00330012184B41802109068B4276
:101D5000E8D30122034B5242E4E7C046F8C6002014
:101D6000FFFFFF0FFFFFFF7F10B5144C6368002BD0
:101D700004D00A211248FFF729FE10BD2300114AA2
:101D80001021206800F0B6FB032000F061FA032068
:101D900000F066FB03200C4900F0B4FAFFF7B6F838
:101DA0000A4B9C4603232375D0231B061B68604403
:101DB0006375074B80006060DC60DAE70C10002080
:101DC000E8D70020451A0010A91B0010400000347D
:101DD000F8C60020004870470C100020F0B55746A8
:101DE0004E464546DE46E0B585B0019310AB1B7804
:101DF0000600039300239A46984600927268EFF318
:101E0000108B72B61368002BFCD0BFF35F8F356860
:101E1000AC7B002C00D16EE067002B683F19033FBC
:101E2000DB195A78AA73002A00D1EA73484AA1182C
:101E3000B2680901521800980199106051600E991A
:101E400091600F99D16042469A705A701A706B7BFC
:101E50009946002B00D16BE022006B684946A868C8
:101E600098474B465B004B442A68033B002856D0FA
:101E70004846D719B870D118D35C002B00D07B70BE
:101E80004B460C706B734C4553D0F3681B19013BE8
:101E900018787368BFF35F8F42461A608BF310881F
:101EA0005346002B08D10002204305B0F0BCBB46CE
:101EB000B246A946A046F0BD039B002B46D00E9B20
:101EC00000200F99984703000B433FD004000D1EDC
:101ED0001ADA009A019B121BAB41009201938022F7
:101EE0001206934204D301231A4C5B4200930194DF
:101EF000039B9A4682E77368BFF35F8F1C608BF386
:101F0000108801204042D0E700F0AEF9802200198D
:101F100069411206009001919142E9D3E3E7D31899
:101F20009C70D119D25D002A00D05A704B460B70BC
:101F30006C73307D009A019B00F02AFA82460028DB
:101F4000A3D02100306800F03BFC9EE70020ACE706
:101F5000FFFFFF0FFFFFFF7FF8B5040000292FD020
:101F60004268EFF3108572B61368002BFCD0BFF304
:101F70005F8FFF222068CFB2437B0A40BB4213D061
:101F800003685600B6189B19033B9B78002B0BD1B6
:101F90002269914216D000206368BFF35F8F002250
:101FA0001A6085F310880CE0E6680B0AB218013A53
:101FB0001278DBB29A42EED1390000F001FCEBE777
:101FC0000020F8BD2361E6E7407D7047F0B50400CE
:101FD0000D0006267642F717C64636196F4100B542
:101FE00084B08F4214D811D000F03EF932003B008B
:101FF000121A8B41002B15DC002B3ED0200029004B
:1020000000F070F904B080BCB846F0BD8642EBD950
:102010000026002700F028F932003B00121A8B41FD
:10202000002BE9DD002302930193154B320000934E
:1020300014483B00FFF7D2FE0028DFDB0023984660
:10204000BC46114A114F7B6A9C4504D8B96A8E423E
:10205000D4D99C45D2D11168EFF3108072B60B68C9
:10206000002BFCD0BFF35F8F1368BFF35F8F414637
:10207000196080F3108820BFE5E7002ABED0D1E7C1
:10208000791A00100C100020E8D70020004005400D
:1020900070B5060000F0E8F8FA2204000D000023F5
:1020A00030000021920011F027F8802300196941C7
:1020B0001B06994202D3012002494042FFF786FFE6
:1020C00070BDC046FFFFFF7FF0B5EFF30583CE463E
:1020D000474680B505000C0085B0002B12D02A4A77
:1020E0000020536AA34203D3926A0130AA4204D368
:1020F00005B0C0BCB946B046F0BD1B1B5A1E93418B
:10210000D8B2F5E7214E02930193214B02000093D0
:1021100030000B00FFF762FE031EE0DD20BF716898
:10212000EFF3108772B60A68002AFCD0BFF35F8F06
:10213000DAB29446FF2230681A40417B61450FD0E5
:102140000168894651008846494690444144033914
:102150008978002904D13269934209D1316107E0BD
:10216000F1681B0A8A18013A1278DBB29A4207D04A
:102170007368BFF35F8F00221A6087F31088AEE7A1
:10218000614600F01DFBF3E7004005400C10002005
:10219000791A0010F0B5EFF30582D6464F46464651
:1021A0001000C0B51038EFF3108872B6214C2368C8
:1021B000002BFCD0BFF35F8F0123190081401E4D1F
:1021C0001F006963AA461D4D29601D4D2E78AC463F
:1021D0003500C5402F402B4215D053465F6A194B3E
:1021E0008500EB589F4218D36246174B8E43EB583D
:1021F0001670BFF35F8F0022226088F31088002BD7
:1022000006D0984704E0BFF35F8F276088F31088FB
:10221000E0BCBA46B146A846F0BD0C4B92009C46C5
:10222000624413681360BFF35F8F0023236088F359
:102230001088EDE7280100D0004005403C700540C3
:1022400074D80020F4D70020F8170020D03F0540B4
:1022500010B5034B01001800024AFEF7BDFD10BD8A
:1022600063D80020445B0110034B596A0A00986A46
:10227000596A8A42FAD170470040054070B504009F
:102280000D00174A536A1900966A536A8B42FAD1B5
:102290003000190024184D41AB4216D813D0104B12
:1022A0002A005B6A9D4203D90D494B6A9342FCD3D5
:1022B000934207D10A4A02E0516A994202D1916AD7
:1022C000A142F9D370BDA642E9D9054B5B6A1C0057
:1022D0005A1CEFD0012201246442E5175242E3E781
:1022E00000400540064A536A9942FCD807D1044B86
:1022F00002E05A6A914202D19A6A8242F9D3704747
:102300000040054070B504000D00EFF3108672B672
:102310001A4A1368002BFCD0BFF35F8F002D1BD02F
:102320002000FFF795F8164981420AD02000FFF7F8
:1023300097F801212000FFF75BF80123A340114A21
:102340001360114BA400E550BFF35F8F00220B4BCD
:102350001A6086F3108870BD0121A1400A4BA200CB
:10236000D5500A4B20001A788A4305491A70FFF7A6
:102370009BF900212000FFF73BF8E5E7280100D09A
:102380009521001038600540F817002074D800200F
:10239000F0B54F46D6464646C0B507002B4C616A9D
:1023A0000D00A66A616AA942FAD18B4208D805D00D
:1023B0000120E0BCBA46B146A846F0BDB242F7D90A
:1023C000EFF3108A72B6224801680029FCD0BFF3EF
:1023D0005F8F0125BD401F491C4C884609788946FE
:1023E0002943C9B28C46414660460870391D8900B0
:1023F00065630A511849B8004350216A00202942F8
:1024000019D0616A0800A66A616A8142FAD18B42DA
:1024100019D801D1B24216D8CC450BD00B4B1F2294
:102420001D625D6301233A4093400C4A13604346AA
:102430004A461A700120BFF35F8F0022044B1A60D6
:102440008AF31088B5E70020F5E7C0460040054054
:10245000280100D074D80020F4D7002080E200E0EA
:10246000EFF3108C72B60A490B68002BFCD0BFF357
:102470005F8F01238340074A0748136202789A431B
:102480000270BFF35F8F00230B608CF310887047DE
:10249000280100D00040054074D8002070B5060027
:1024A0000D00140000291DD0002A12D07368806826
:1024B000984762006B0012195B193168033A033BBD
:1024C000002808D08A189570C818CB5C002B0BD157
:1024D0000470280070BDCB189C7088188A5C002A94
:1024E00005D105702000F5E753700470F1E75A70CC
:1024F0000570F7E710B583600023CCB24373013356
:10250000426004738373C4730068421C012C05D9B4
:102510000133DBB2137003329C42F9D1FF230B402D
:102520005A00D318C01800230338437010BDC046AA
:1025300070B505000C1E07D0630001681B19033B32
:10254000CB185A78002A01D1200070BD50008018A5
:102550000338091800204E78487021005870280070
:10256000FFF79CFF310004002800FFF7E1FF0600A1
:10257000002C20D00028E7D0320021006B68A8682A
:1025800098477200630092191B192968033A033BAC
:10259000002808D08A189470C818CB5C002B00D093
:1025A00053700670D0E7CB189E7088188A5C002A9A
:1025B00000D05A7004703400C6E7C046F0B55746E4
:1025C0004546DE464E46E0B50D006F0001687F19B6
:1025D000033F0400C85D83B00192CA19002850D09F
:1025E00043001B18033BCB185E78B446002E1AD16B
:1025F000019E002E42D0E67B002E04D073009B1972
:10260000CB18033B5D70A37B002B00D1A573E57352
:1026100000282FD10023537003B0F0BCBB46B24654
:10262000A946A046F0BD72006244033A8A18517868
:1026300088460021517089465970320001002000FF
:10264000FFF72CFF43468246002B07D05B00216832
:102650004344033BCB185A78002A16D142465146D0
:102660002000FFF71BFF2168019BCA19002BC2D174
:102670000028CFD043001B18033BCB1800219970D2
:10268000C8E7019B002BB6D1C4E75000801803387F
:1026900009184878834648464870587041462000DB
:1026A000FFF7FCFE594680462000FFF741FF4146F8
:1026B00002002000FFF7F2FE8046CFE7F0B5574654
:1026C0004546DE464E46E0B583B00191457B0400A9
:1026D0006F0000687F19033FC15DC219002952D005
:1026E0004B005B18033BC3185E78B446002E1CD128
:1026F000019E002E44D0E67B002E04D073009B196F
:10270000C318033B5D70A37B002B00D1A573E57359
:10271000002931D1002328005370617303B0F0BC4D
:10272000BB46B246A946A046F0BD72006244033AD9
:1027300082185078804600205070814658703200D0
:102740002000FFF7ABFE43468246002B07D05B001C
:1027500021684344033BCB185A78002A17D14246DC
:1027600051462000FFF79AFE019B01002068C21924
:10277000002BC0D10029CDD04B005B18033BC31800
:1027800000209870C6E7019B002BB4D1C2E750002F
:1027900080180338091848788346484648705870AE
:1027A00041462000FFF77AFE594680462000FFF799
:1027B000BFFE414602002000FFF770FE8046CEE7D4
:1027C00070B5050000292CD0437B8B422ED04C00E5
:1027D00000686418033C0419A278002A21D0530031
:1027E0009B18033BC25CC6188A4202D11BE0002A38
:1027F00008D053009B18033BC3185A788A42F6D17D
:1028000062785A70002301222800A3706370FFF7DA
:10281000D5FE697B02002800FFF740FE68730120A7
:1028200000E0002070BD63783370EBE701221900EF
:10283000FFF7C4FEF2E7C046F8B5040022481E00C8
:1028400017000D0010F0EAF80100380010F0E6F86B
:10285000069B36041B031E432368002B22DB1B4B05
:102860001B49E3185A1E93418022920194465B4211
:102870001B0B184A1B0363441360174A13601F00A5
:102880008A689743FBD1C022231D92011A4321235A
:102890002560A06013602368002BFCDA0823E66043
:1028A0001360F8BD3F2322681340AB42D7D1A36821
:1028B0001B051B0D8342D2D1EE22E368D2021340E6
:1028C000B342CCD1EDE7C046001BB7000040FDBFCE
:1028D00000C0004000E0004000F000408023024AB9
:1028E0009B000343D36270470080054010B58024ED
:1028F0001C4BE4051C6000281AD001231A4C184315
:102900001A4BDC611A4C44401C6259629862802167
:10291000144BC9051960174817490860E021C9041C
:102920001960002A07D18022144B12061A6010BDCC
:102930000E4BD861EBE753019B1A9B009A1880233A
:1029400012015B049A4209D213000D490B60074B38
:102950005A608022094BD2051A60E8E7094B1A0039
:10296000F3E7C04600B00540D3C007B00080054083
:102970002D3FF84FFCFF01000820014000A005405A
:10298000482D0020FFFFFF00AA23064A1B01136009
:102990002F230549D360054B19605368002BFCDADF
:1029A0007047C0460040024000B0FA00006002409C
:1029B00010B501F03FFC00F059FB00F021FD00F0E4
:1029C000C5FD05F0A5FC01F0C3FC00F085F905F09C
:1029D00011FC10BD40BA80B27047C04600BA7047C3
:1029E000F0B5C646584D04002B68884600B5002B4C
:1029F00003D02A7A824200D17CE0544E2701EB6852
:102A0000002B02D02A7DA2426AD0AB69002B03D0F2
:102A10002022AA5CA24259D06B6A002B03D02C2240
:102A2000AA5CA2422CD03B191B01F318DB7B002CC3
:102A300035D0B27A022A68D0012C35D08D225200CE
:102A4000B25C022A00D172E0022C31D0404AB25C62
:102A5000022A00D172E0032C2AD1032B0DD83D4D60
:102A60009B00585905F0AEFF00223F193F01F719AE
:102A7000FB7B9B005A510423FB7380BCB846F0BD1E
:102A80003819000110304146AA6A301898470023CF
:102A90006B623B191B01F318DB7B002CC9D18D2223
:102AA0005200B25C022A3BD0294AB25C022A32D0E0
:102AB000294AB25C022AD0D1284AB25C9A42CCD1CF
:102AC00004223B191B01F318DA73D6E73819000109
:102AD00010304146EA69301898470023AB619BE704
:102AE00038190001103041462A69301898470023F0
:102AF000EB608AE707013818144E000110306A684D
:102B00003018984700232B6079E7F27B9A42D7D0A0
:102B1000012C93D1C8E7124AB25C9A42C8D1CFE7E0
:102B20002022FF32B25C9A4200D08FE7C8E7202211
:102B3000FF32B25C9A4200D086E7C1E7084AB25C35
:102B40009A4200D087E7BBE794240020CC240020E1
:102B50002A020000842400203A0300003F03000002
:102B60002F020000564BF0B54546DE4657464E460E
:102B700098460301E0B59B461D1843462D015E199A
:102B8000F37A070089B0012B00D996E04D4A9B00EB
:102B9000D4580192002C00D185E01035454428001E
:102BA00012F0D4FEA022123081B29200362000F042
:102BB000EFFE8146002869D005AC0C2200212000E0
:102BC00010F0F0FA3089FFF705FF01232080A37091
:102BD0000C22FF3321004846A38001F091F93A4BC3
:102BE0000C269A464346013D029703936A786F1C70
:102BF0003B0000242E2A07D15AE05A780134E4B26F
:102C0000591C2E2A49D00B00002AF6D1DA1B92B2A9
:102C100090461D002200B218524534DC22003100DB
:102C2000484601F027FA731C9BB2A41942463900AA
:102C3000484601F0A1F9A4B22B78661CB6B2002B6D
:102C4000D4D1039B0022310048469846029F01F0F0
:102C500011FA1E4B02340422049304A9A3B248467D
:102C600001F08AF93B0001995B448C461B01434407
:102C7000DA7ADB7B16499B00920058586244352370
:102C8000494605F02DFE484600F0D8FF09B0F0BCDB
:102C9000BB46B246A946A046F0BD5B1B9BB2984618
:102CA00022000D00B7E70021FFF79AFEB472EDE7AE
:102CB00000233D0000229846ADE706480EF0ACFA2E
:102CC000CC240020C4240020FEFF000000010001ED
:102CD00084240020685B01107047C046012800D999
:102CE0007047054B8000002902D00A68C250F7E700
:102CF000024A1268C250F3E7C4240020B4790110DC
:102D0000F8B5DE4657464E4645460223E0B5474EE7
:102D1000002534009B460027A37A022B39D030D8F7
:102D2000002B22D08D235B009846414B9946414BA6
:102D30009A46FDF735FFB37A80B2022B41D0434665
:102D4000F35C022B44D04B46F35C022B49D0534634
:102D5000F35C022B4ED05B46A37201232081E77205
:102D6000280023736773FFF7FDFE01351134EDB2C0
:102D7000FF34042DD0D1F0BCBB46B246A946A046D4
:102D8000F8BD032B4FD12368002B13D10023A3726E
:102D9000EBE7237B013BDBB22373002BE5D1637BA5
:102DA0000133DBB26373042B2AD023732800FFF7AF
:102DB000D9FEDAE7013B2360002BD6D10023A372B2
:102DC000D3E733898342B4D04346F35C022BBAD1B4
:102DD0001733FF33F35A8342ABD04B46F35C022BDD
:102DE000B5D18A239B00F35A8342A2D05346F35CA9
:102DF000022BB0D1CE239B00F35A8342ABD198E78C
:102E0000E37A002B08D10C4A5268002A04D0012230
:102E10006373E2722273C9E700212800FFF7E0FD27
:102E20000023A372A1E705480EF0F6F9CC24002098
:102E30002A0200003A030000C42400209C5B011019
:102E40000123F0B51E0000250640184205D00029D8
:102E500053DD057801392D020130032213000340B0
:102E6000104251D1072957DD072208390F0091433D
:102E70000A00010004000831891822689A189A4251
:102E80009B415B42D21863680834D3189342924145
:102E900052429B18A142F0D1F9084A1CD200801876
:102EA000C9001A04791A120C1B0C9B18012910DD99
:102EB00002889B188A1E012A05DD44881B190529F2
:102EC00001DD81885B1851084C1C64004900001921
:102ED000511A012904D10278FE318D431543ADB258
:102EE000ED182B0C2D042D0C5B19180C1B041B0C5E
:102EF000C018002E02D180B2F0BD002003060004ED
:102F00001B0C000E1843F6E7012903DD0388023984
:102F10000230A7E70023DCE71A00C5E7F8B55746FB
:102F20004E46DE464546E0B591460A9A8A46116805
:102F30001B680A04120C090C52181904090C5218C7
:102F40001B0C9B181A0C1B041B0CD3181F0C1B0406
:102F50001B0C0400FF18002825D000239B46FF33DC
:102F600001269846658960682900FFF769FFC01946
:102F7000070C0004000C3F182E4209D05B46414666
:102F800073403A069B463B0A120C0B401A4317004B
:102F90002468002CE6D15B46002B04D03A063F049F
:102FA000120C3F0E17435046FFF714FD040048462D
:102FB000FFF710FD2318DB191A0C1B041B0CD31888
:102FC000180C1B041B0CC018C04380B2F0BCBB46DD
:102FD000B246A946A046F8BD10B582B0049C009444
:102FE000FFF79CFF02B010BD10B5FFF729FFC043EB
:102FF00080B210BDF8B5CE464746040080B5002823
:103000002FD000239946FF33002701269846658973
:1030100060682900FFF714FFC019070C0004000CBA
:103020003F182E4209D04B46414673403A06994616
:103030003B0A120C0B401A4317002468002CE6D1FF
:103040004B46002B0AD038063B04000C1B0E1843DD
:10305000C04380B2C0BCB946B046F8BDF84380B2A8
:10306000F8E70148F6E7C046FFFF00000322094BDE
:10307000FA219343084A0901136000221A71074A92
:1030800058181060012219600271054A5A50054A09
:103090001360704713C7002008C700200CC700202A
:1030A000A00FA00F442D0020F0B5D6464F4646464F
:1030B000C0B500285DD0830700D079E003003E4A08
:1030C000083B12689A4200D96CE03C490C300C680D
:1030D000844267D31979002967D0FA2019885E885D
:1030E000000181420BD8864209D8981A80B28046E6
:1030F00090198246B04505D00088404502D030483E
:103100000EF08AF85018844238D045884545F6D1EB
:1031100000251D712B4DAC462D689D4202D9654698
:103120002B601D009C4232D9834212D00779002FB8
:103130000FD184420DD0A84230D00188FA201980E6
:103140000001814205D04446501844805E889019A1
:10315000824653450DD050460079002809D1AB4234
:1031600018D053461980FA231B01994201D05218F6
:103170005680E0BCBA46B146A846F0BD00251D7198
:10318000104DAC462D68AB42C9D39C42CED80E48F8
:103190000EF042F8634650461860E2E761461D00B3
:1031A0000B60CAE709480EF037F809480EF034F80A
:1031B00008480EF031F8C04608C700200CC70020B0
:1031C000245C0110442D0020585C0110E05B0110CC
:1031D000FC5B0110BC5B0110F8B5CE464746384A8F
:1031E000CB1C80B513400B2B3FD9FA22120193421E
:1031F0003ED899423CD8334A1668864256D8324A5D
:103200001268824252D90400083C2588A11B2A007A
:1032100089B2083A521A92B29A424AD321D0771907
:10322000BC463F79002F25D1FA221201954243D0A6
:1032300062461288254D91460A0008329B182F6875
:103240009BB2F21867452FD0002515714D4651806D
:103250001580FA212380128809018A4201D0B21810
:103260005380C0BCB946B046F8BD0C239942C2D9C0
:103270000020F6E71F001437BFB2BA42F1D30A00AC
:1032800008329B18FA229BB298461201954213D03D
:103290000E4FF2183B68934200D93A60002743462C
:1032A000177115805180D4E72A60CDE708480DF0EA
:1032B000B3FF08480DF0B0FF07480DF0ADFFC04662
:1032C000FCFF000008C700200CC70020442D002090
:1032D000745C01108C5C0110AC5C0110F8B5DE462A
:1032E00057464E464546E0B500282ED03D4BC61CFD
:1032F0001E40B3460B2E2FD9FA231B019E4224D821
:10330000584522D8384BFA279A461B6859469946A1
:10331000364B3F0118684B461B1A9AB21B041B0C14
:103320007F1ABB4211D2082149428846C4189446EC
:103330002579C25A19001300002D04D14646711A8E
:10334000891859450BD29742F0D80020F0BCBB46F3
:10335000B246A946A046F8BD0C239B46D0E75B4683
:103360001433994211D201235E4623710836204B53
:103370001968A14520D0A619B1422CD320000830ED
:10338000A407E3D01B480DF047FF5E466346FA27CB
:1033900008369B199BB23F01BB421FD0C1180A805F
:1033A00062464A8001220D71238022710A88BA4246
:1033B000DDD082185380DAE7230004E01B88C318AD
:1033C0001A79002A04D08B42F8D153461960D2E70B
:1033D00052461360CFE708480DF01EFF07480DF076
:1033E0001BFFC046FCFF0000442D002008C7002042
:1033F0000CC70020F05C0110C05C0110AC5C011037
:1034000024230022F0B54746CE4690469946033223
:1034100004249446124E80B5124B134FB1444146DA
:1034200032683960614603338B43002C0BD015881A
:103430000021002200E00300013219605819190030
:10344000A242F8DB3B600436B14504D0326897688D
:1034500053685488E3E7C0BCB946B046F0BDC046E7
:10346000C076011084BE0020ACC6002010B508282C
:1034700012D80C4B8000C458FCF7E0FFA3681C680E
:10348000002C07D022681A60A30707D1FCF7D8FFE9
:10349000200010BDFCF7D4FF0024F9E702480DF02E
:1034A000BBFEC046C0760110345D011070B50C0043
:1034B00008280ED800290CD0084B8000C5588B076F
:1034C00008D1FCF7BBFFAB681A6822601C60FCF7F0
:1034D000B7FF70BD02480DF09FFEC046C0760110D8
:1034E000585D01100C2040427047C04670B54368DB
:1034F00016000A6804000D0082B09A4201D102B0A1
:1035000070BD3360300001A9019201F0A9FE3000C6
:1035100001A905F083FA01A9300000F06BFE392300
:1035200029686160E25C343B1340052B05D0E369F8
:10353000002BE4D020009847E1E70029F7D01207DC
:10354000F5D52000211D07F0ADFBF0E77047C04620
:10355000F0B54746CE4680B504000F009146984628
:1035600083B0002800D180E00B9B002B7DD0002988
:1035700000D18FE04B46002B00D188E04346002B62
:1035800000D181E0474B00256361002239232000F0
:103590006560A560E56025860021E254283004229C
:1035A0000FF000FE0A9B404E63623C233278E561D7
:1035B0002562E2540C9B23613B68002B5BD0002109
:1035C000002000224B461B68984200D0A36043466F
:1035D0001B6899423CD1002A3DD020000B9B9847A4
:1035E000002842D1314B9C461F683C23E55CFF2DEF
:1035F00018D03C20002F1AD0BC424FD03B00FF22F5
:1036000007E01B68002B12D09C4247D0013A002AE9
:1036100017D0195CA942F4D10135EDB2FF2D13D0BA
:103620002554E9E7E05400253C20002FE4D1FE2D8D
:1036300032D00135EDB263462760200035701C6042
:1036400014E01B480DF0E8FD002300252354D3E7C8
:10365000E360002AC1D12000390001AAFFF746FF2C
:1036600020000B9B98470028BCD0002003B0C0BCB2
:10367000B946B046F0BD3900200001AAFFF736FF79
:103680000122A068E1689DE70A4B98467AE7094B5A
:10369000994673E7074F6DE70025CCE706480DF024
:1036A000BBFDC046E53400106CD80020CCC600201D
:1036B0008C5D0110B4790110785D0110F0B5040043
:1036C0000D0017001E0083B0002922D0002F23D048
:1036D000002E24D02B680022002B15D03B68A16857
:1036E0008B4200D0A3603368E1688B4203D1002A8B
:1036F00004D003B0F0BDE360002AFAD16A46290085
:103700002000FFF7F3FEF4E76268002A09D10122E6
:10371000E4E7164D002FDBD1144F002EDAD1134E03
:10372000D8E7684601A90193009201F099FD684627
:1037300001A905F073F901A9684600F05BFD392382
:103740002A686260E15C343B0B40052B07D1002AFC
:1037500005D0090703D52000211D07F0A3FAE3696E
:10376000002BD4D0200098470122B7E7B47901108C
:1037700070B5041E16D04368002B17D139220121E1
:10378000A35C194224D11D4B1A68A2422ED01C4AB8
:103790001368A34204D126E01A68A24203D01300A2
:1037A000002BF9D170BD22681A60FBE7051D0021CE
:1037B000280001F055FD0021280005F02FF9002117
:1037C000280000F017FD39220121A35C1942DAD04C
:1037D00018008843A0541B070BD4E369002BD2D0F8
:1037E00020009847CFE723681360DBE700221A60C8
:1037F000CDE7200006F0B4FEEFE7C046C8C60020C3
:10380000CCC60020014B18607047C046C8C60020D7
:1038100070B5041E15D03925435DDA0711D4012295
:103820001343DBB24355C269002A01D09047635D60
:1038300005221A40052A04D16268002A01D01B071C
:1038400000D470BD2000211D07F02CFAF9E7C04616
:1038500070B5041E03D03925435D5A0700D570BDED
:1038600004221343435505F0DFFF0523625D134037
:10387000052B05D0236A002BF1D020009847EEE7F6
:103880006368002BF6D01207F4D52000211D07F045
:1038900009FAEFE710B500280AD039220421835C29
:1038A000194205D08B438354036A002B00D09847FC
:1038B00010BDC046021E0ED0084B1868002809D063
:1038C0003C2102E00068002804D0435C0133DBB2F5
:1038D0009342F7D170470020FCE7C046CCC60020D9
:1038E000F8B505000026002826D00F270BE0012B95
:1038F00024D0002B2AD12800FFF7D6FB0136F6B2E0
:10390000002C19D02500FCF799FDAC7B002C1AD0B7
:10391000013CE4B2AC73FCF793FD002C0CD12B7B83
:103920002C683B40022BE2D1290008200136FFF72A
:10393000BDFDF6B2002CE5D13000F8BD290007200E
:10394000FFF7B4FDDAE703480DF066FC02480DF01E
:1039500063FCC046BC5D0110D45D011010B5FCF7DE
:103960006DFD0022084B1A70FCF76AFD074B1868C2
:10397000002803D107E0C068002804D0436F002B63
:10398000F9D001F0B7FC10BD6ED8002004D800209B
:10399000F0B5C1234F464646D6468046C0B50D0019
:1039A000170004005B009A4250D000220C0491469C
:1039B0000C439F4208D83D00433BFF3B9D43012DF4
:1039C00024D03B480DF028FCA0239B009F42F8D157
:1039D0000300032703330335BB43BD435B199BB28D
:1039E0001800103080B2AB422ED385422CD8FFF79E
:1039F00075FC061E16D04B4603604346C3181333AE
:103A0000BB4343602B4B8460C3600BE00720FFF790
:103A10002DFD061E06D04B4684600360436007738D
:103A20004373C5813000E0BCBA46B146A846F0BD3C
:103A3000FCF704FD0122204B1A70FCF701FD002E5B
:103A400002D03000FFF74CFF0026EBE7002398463A
:103A50001A4B00269A4600230327994607E0424660
:103A6000ED1AADB21060002DDCD080460024082095
:103A7000FFF7FCFC0028DBD05246E31CBB43D31A03
:103A80001A1C9BB2AB4200D92A1C4946041993B2B6
:103A9000133442810A4ABC43016044600581C2601C
:103AA000002EDCD1ED1AADB20600002DDDD1B9E754
:103AB000E85D0110800001006ED80020EC050000D8
:103AC0008200010070B5041E33D002898A421BD9DE
:103AD0008A1A07E0C91A238989B29B1823812468AE
:103AE000002C20D063898B42F4D3227B0D040D433C
:103AF000120701D18B4208D12068A560002801D0AF
:103B0000FFF7EEFE0023236070BD636820001B1BDF
:103B1000C91889B2FFF760FB002807D08442EBD0B8
:103B200005480DF079FB05480DF076FB04480DF0D3
:103B300073FB04480DF070FB505E01101C5E011019
:103B4000345E0110045E0110030070B500281ED021
:103B500080225202914218D2002914D002898CB2DC
:103B6000A21892B2944210D8057B01207F2D0BD968
:103B70005D68691A1D001035A94205D3596059893D
:103B80001A8164185C81002070BD0120FCE70148A7
:103B90000DF042FB6C5E011010B5002815D080239B
:103BA0005B0299420FD200290BD043898AB29A4214
:103BB00009D89B1A44684381038961189B1A4160A4
:103BC0000381002010BD0120FCE701480DF024FB1B
:103BD0006C5E011010B5002915DB002829D00029E2
:103BE0000FD003898AB2D3189BB29A421FD8446877
:103BF000611A047B7F2C16D84160418903815218D9
:103C00004281002010BD002813D0494243898CB264
:103C10009C420CD81B1B42684381038952181B1B12
:103C200042600381EDE704001034A142E4D2012098
:103C3000E8E701480DF0F0FA6C5E011010B50028BD
:103C400002D0FFF74DFE10BD01480DF0E5FAC04669
:103C50006C5E011003000020002B04D01B680130B3
:103C600080B2002BFAD1704710B5041E09D0FCF7C2
:103C7000E5FBA37B0133A373FCF7E2FBA37B002BE3
:103C800000D010BD01480DF0C7FAC046785E0110A3
:103C900010B5002816D0002914D00268002A01D1DE
:103CA00011E01A0003890C891B19038113681000A5
:103CB000002BF6D110895389834206D108891160FF
:103CC0001B18138110BD0200F4E701480DF0A4FA9F
:103CD0008C5E011010B50C0000281FD000291CD0EC
:103CE0000368002B07D0028921895218028118002D
:103CF0001B68002BF7D102894389934211D1228995
:103D000004609B180381FCF799FBA37B0133A37329
:103D1000FCF796FBA37B002B06D010BD0029FCD03E
:103D2000F1E703480DF078FA02480DF075FAC04645
:103D30008C5E0110785E0110F8B54746CE4606004D
:103D400080B5884691461F00002900D18AE00B8982
:103D5000934200D286E0002800D183E04B460289DE
:103D6000FB189A4200DA7DE000250EE0BA4242D00C
:103D7000424612899A4236D0002E03D07289338986
:103D80009A4245D04B46002B5FD0434674895B89ED
:103D9000E41B5B1B9C4200D91C004C4500D94C46DF
:103DA0004346706859682200C01949190FF000FA9B
:103DB0004B463F192D1972891C1BA3B29946BA4272
:103DC00053D343465B89AB4252D3CFD143461B68A2
:103DD0009846002B28D0BA420CD042465B89128903
:103DE00000259A42C8D143461B68002BC4D0062048
:103DF00040422BE000253668002E1ED043465A89EB
:103E00001B899A420AD00027728933899A42B9D114
:103E10003368002BB6D00620404217E043461B68AB
:103E2000002BE4D10027EFE74B46002B1AD10025E9
:103E3000BA42A1D1002736689EE74B46002B11D12C
:103E400043465A891B899A4204D00020C0BCB94617
:103E5000B046F8BD43461868431E984105234042CA
:103E60009843F3E710204042F0E703480DF0D4F9FF
:103E700002480DF0D1F9C046BC5E0110D45E0110BD
:103E800010B5002904D000230A89FFF755FF10BDA3
:103E900010204042FBE7C046F0B5C6460500884604
:103EA0001700002600B5002826D0002924D0002FB6
:103EB00005D121E02D681B1B9BB2002D1CD06C8905
:103EC000002B01D0A342F5D2E41A221CA4B2BC42BA
:103ED00000D93A1C94B2424669683F1B9019C91830
:103EE00022003619BFB20FF063F9B6B22D68002F69
:103EF00002D00023002DE2D1300080BCB846F0BDD6
:103F0000F8B5CE46474605008846914680B500285C
:103F100024D0002922D0038993421CD31600002705
:103F2000002A02D112E0002D1BD06C89B44200D9C6
:103F3000340043466868D91922000FF039F9361B5E
:103F40002D683F19002EEED1B9450DD10020C0BC1F
:103F5000B946B046F8BD01204042F8E71020404283
:103F6000F5E703480DF058F902480DF055F9C04641
:103F7000F05E0110085F0110F0B5D6464F46464688
:103F800005008A46C0B5002805D146E02D68DB1B38
:103F90009BB2002D41D06F89BB42F7D22989981876
:103FA0008146814239DB9F4240D96868C018FB1ABC
:103FB0009A422EDD9BB21A00514698460FF0F8F84F
:103FC0004B46DF1BBBB29946002B1CD02F68002F3D
:103FD00029D03B894B4520D34E46002401E0002FD9
:103FE0001ED07D89B54200D935004346191978683D
:103FF0002A0051440FF0DCF8761B3F686419002E4C
:10400000EDD1A14515D10020E0BCBA46B146A84685
:10401000F0BD51460FF0CCF8F5E701204042F3E740
:1040200005480DF0F9F810204042EDE703480DF087
:10403000F3F803480DF0F0F8F05E0110205F011076
:10404000085F01100B0070B5150011891A00FFF709
:104050009FFC041E06D0002329002A89FFF76CFE6E
:10406000002801D1200070BD01480DF0D5F8C046F0
:10407000385F011005E043898B4205D8C91A0068F2
:1040800089B20028F7D1704743685A54FBE7C0460D
:10409000F0B5DE46454657464E468046E0B5514FA0
:1040A00083B03968786908F009F843465A684E4B7E
:1040B000557A1C689B46002C00D18EE0002843D125
:1040C0003C2300269946844604E0E3682600002B42
:1040D00032D01C00237CAB42F7D1217A002906D0D4
:1040E00048467B681B5C0133DBB29942EDD1236803
:1040F000002B02D079698B42E7D10121637C194200
:1041000003D061683B699942DFD163699A46002B0D
:10411000DBD0019221004246A069344BD0470028F1
:1041200050D143465A68019B934258D102239C4682
:10413000E3682600002BCCD1604603B0F0BCBB4640
:10414000B246A946A046F0BD0020012300269A46AB
:10415000019004E0E3682600002B31D01C00237C92
:10416000AB42F7D1217A002908D07B689C463C23DA
:104170006046C35C0133DBB29942EBD12368002B6C
:10418000E8D15146637C194203D061683B6999428A
:10419000E0D163699946002BDCD0019221004246B0
:1041A000A069124BC84700280CD143465A68019BAE
:1041B0009A4214D102230193E3682600002BCDD14B
:1041C0000198BAE7002E06D0E368F3605B461B68EF
:1041D000E3605B461C600120AFE70020ADE70448C8
:1041E0000DF01AF8282D0020CCD60020382D002004
:1041F0004C5F011010B5002811D00268002A0ED0C3
:1042000000290CD00B68002B09D0094B1B68002B30
:1042100005D01C68944203D0DB68002BF9D110BD97
:104220000A681A60DB68002BF9D00268F1E7C04623
:10423000CCD600207047C04610B5041E20D0037DA8
:10424000042B03D0072B0AD0032B11D1200003F03D
:1042500077F80523002807D0431C0BD010BD03F0CE
:104260006FF80028F8D109232000237503F078FBAC
:104270000020F3E70822638B002013436383EDE7FC
:1042800001480CF0C9FFC046985F011070B50600E8
:10429000806F002803D0FFF7D1FC0023B367746F51
:1042A000002C18D06068256800280CD0FFF7C6FCE9
:1042B00021000420FFF7FAF8002D0AD02C006068D6
:1042C00025680028F2D121000420FFF7EFF8002D27
:1042D000F4D1002373670123F46E5B423386002C14
:1042E00016D06068256800280CD0FFF7A7FC2100D5
:1042F0000420FFF7DBF8002D0AD02C006068256849
:104300000028F2D121000420FFF7D0F8002DF4D1CD
:10431000346F002C16D06068256800280CD0FFF799
:104320008DFC21000420FFF7C1F8002D0AD02C00DD
:10433000606825680028F2D121000420FFF7B6F854
:10434000002DF4D100236822F3663367B35270BDA9
:1043500010B5FCF725FC044A80049446034B800CFE
:104360006044188010BDC04600C0FFFF3810002018
:1043700010B5037D0100012B03D00220FFF796F852
:1043800010BD01480CF048FFA45F0110F8B5031EF2
:104390001BD0048DC16A466A5D8E0F4F601A80196A
:1043A0002A1CBD420CD892B2821A07D5891B09D4A7
:1043B0008022520291420BD200208CB25C85F8BD63
:1043C0003A1CF0E700240020F8E704480CF024FF32
:1043D00003480CF021FFC046D0160000B85F011062
:1043E000DC5F0110F8B500281DD0037D012B34D00F
:1043F000048D1D4A61188BB293421BD91300466A83
:10440000458E1A4FC46A0385B218291CBD420BD8C9
:1044100089B20919511A11D5A41B1BD480235B0240
:104420009C421DD24485F8BD391C89B20919511A24
:10443000F2D403E09C42E1D81A00E0E743850C4B3C
:10444000121B9A42EFD90222438B1343438303F09A
:1044500087FAE8E700234385E5E706480CF0DCFE31
:1044600005480CF0D9FEC046A02D0000D016000073
:10447000670B0000F85F0110DC5F0110C14BF0B565
:104480004E469946DE46574645464A46E0B51B68C5
:1044900089B001331360BC4A13780592013313705D
:1044A000BA4B0793BA4B0693079B1C68002C00D1AC
:1044B000C7E000239B4649E0012290460B2B00D821
:1044C000E8E0062D00D10FE1637A1B0758D5042DD3
:1044D00000D0EEE14B461F68236AFA21FF1A9423AD
:1044E000E35849009A469823E6580433E05870434D
:1044F00050440EF093FA874200D8C3E1434601339B
:10450000DBB298460123666F9A46002E00D1AAE1DD
:104510004023E25E53009B185B00BB4241D9257DDE
:10452000032D5AD0092D00D1FDE04346002B00D0C9
:1045300099E1237F627F0133DBB2E56823779A42FA
:1045400000D804E1A3462C00002C7AD0257D002D54
:1045500000D1EDE1012D00D1E7E10A2D00D1E1E12B
:10456000059BA27F1B789A4200D107E1A3774223E3
:10457000E35C022DA0D1052B00D88BE001239846E7
:10458000666F002E00D17AE14B461F68236AFF1A3E
:1045900000239A464023E25E53009B185B00BB4217
:1045A000BDD87068356800280CD0FFF747FB310094
:1045B0000420FEF77BFF002D0AD02E0070683568BE
:1045C0000028F2D131000420FEF770FF002DF4D155
:1045D0000023257D6367032DA4D14B46226A1B6807
:1045E0009B1A282B00D8A5E09023E6582000FFF75F
:1045F0004DFE5A46079B1B68002A00D16DE19C4284
:1046000000D19EE1E368D3605346002B00D054E113
:10461000237D2569E768012B00D18FE1210002206D
:10462000FEF744FF0023069C2370002E07D00D21C7
:1046300028004942B0472378002B00D034E73C1EC5
:1046400084D1544E002431684D46002904D11AE02B
:104650000C00C968002916D00B7D0A2B00D06AE136
:104660002B680A6A9B1AF02BF2D93368002C00D110
:1046700040E1994200D167E1CF68E7600220FEF790
:1046800015FF391EE8D109B0F0BCBB46B246A946B9
:10469000A046F0BDA123E35C9846002B00D17DE04D
:1046A000236F002B00D058E1E36E002B00D157E1BF
:1046B000A223E35C0B2B00D90CE14246A021364B30
:1046C000D25C635C934200D20DE16023E15A002981
:1046D00019D1200003F040FC00281AD0257D0023CA
:1046E0009846062D00D0EFE6638BDB0600D5A9E0E7
:1046F000637A1B0700D543E7666F002E00D043E7BF
:1047000000239A4611E7200002F040FD002800D166
:1047100001E1A0230022E254A132A35C062BDDD8E4
:104720000133A354DAE74B46226A1B689B1AF02B2D
:1047300000D959E74346002B00D055E7237F627F1D
:104740000133DBB2E56823779A4200D9FAE6002309
:10475000069A237713708C33E358002B0AD021007C
:1047600020699847069B1B78002B00D09CE6002808
:1047700000D0E7E6200003F0F3F8E3E6A346E468A0
:10478000E2E6C04614D8002073D8002004D80020E8
:1047900071D8002018D800205F7701103023E25E26
:1047A0007149238E8B4202D801331AB222864023EC
:1047B000E35E934200DD84E6200002F0D1FE257D19
:1047C000002807D0236F002B00D07AE6E36E002B81
:1047D00000D176E6022D16D03C22A35E3E21625E19
:1047E000DB109B184222A15C60480A1C0C2900D9EE
:1047F00087E0D2B2825C934080221202934200DBB7
:104800007DE04022A3520023482023866033E15AF2
:10481000255A628E0B1CA94200D92B1C9BB250005A
:104820005B0885B2191CAB4200D2011C4A23E1523D
:10483000023BE252002222332000E25203F0BAFA95
:10484000257D3EE64B461F68236AFF1A282F00D8B5
:1048500052E743460133DBB298460023666F9A461F
:10486000002E00D054E69023E658002D00D1C0E67B
:104870000A2D00D1BDE6012D00D0B7E6B9E6002330
:104880009A464CE6A323E35CFA215E4330004900DC
:1048900050440EF0C3F8874200D82DE7200003F003
:1048A000EDFA002800D06BE6A322A35C0133A354E9
:1048B00066E6072D00D10DE662E6238B626A216D64
:1048C0000293E38A20000193231D0093230002F04A
:1048D00015FF9DE601239846F3E59C4237D1E36836
:1048E000079A136090E60133DBB26354934200D21F
:1048F000F5E6EAE699422DD1CF683760BEE61C4B5B
:104900007FE70C22D2B2825C934080221202934253
:1049100000DA76E7F3E7200003F022F8002800D061
:10492000F7E6DBE613480CF077FC13480CF074FC58
:1049300012480CF071FC12480CF06EFC11480CF09F
:104940006BFC11480CF068FC10480CF065FC10483A
:104950000CF062FC0F480CF05FFC0F480CF05CFCA4
:104960000E480CF059FCC046FE7F0000687701102D
:10497000FF7F0000786001104C6001102060011082
:1049800068610110A45F01101061011098610110AD
:104990003C610110C0610110A4600110D8600110D9
:1049A00070B5041E16D06068256800280CD0FFF78B
:1049B00045F921000420FEF779FD002D0AD02C00D6
:1049C000606825680028F2D121000420FEF76EFD02
:1049D000002DF4D170BDC04610B5041E08D040684B
:1049E000002801D0FFF72AF921000420FEF75EFD20
:1049F00010BDC04670B5051E0DD00420FEF736FD73
:104A0000041E06D0102229000EF0D2FB6068FFF7CA
:104A10002BF9200070BD01480CF0FEFBE86101108D
:104A200010B5002806D0037D012B03D90A2B01D035
:104A3000FFF72CFC10BDC04610B50C1E47D0002857
:104A400048D003688B4204D12FE0DA68A24224D018
:104A50001300002BF9D10023E360237D002B0FD13D
:104A6000638BDA0729D4E36E002B36D1236F002B3A
:104A700036D1636F002B36D100232375E38210BD3E
:104A80000A2BF0D0012BF7D02000FFF7FFFB237D8E
:104A90000A2BE8D0012BEFD0E2E7E268DA600023CE
:104AA000E360237D002BEBD1DAE7CB6803600023C2
:104AB000E360237D002BE3D1D2E70222134363831B
:104AC000200002F04DFF237D012BD5D0CBE7074816
:104AD0000CF0A2FB06480CF09FFB06480CF09CFB78
:104AE00005480CF099FB05480CF096FB0462011098
:104AF00020620110406201105862011074620110BE
:104B0000F0B54E464546DE465746E0B505000E0078
:104B100087B0002876D0037D012B00D1B0E00A2BAE
:104B200000D19BE0026D9246426A05929022825823
:104B3000934602699146C28A9046002B69D1002AA9
:104B40006FD10023002698462C6F002C16D0606889
:104B5000276800280CD0FFF771F821000420FEF729
:104B6000A5FC002F0AD03C00606827680028F2D11D
:104B700021000420FEF79AFC002FF4D1EC6E002CEB
:104B800016D06068276800280CD0FFF757F821007E
:104B90000420FEF78BFC002F0AD03C0060682768D9
:104BA0000028F2D121000420FEF780FC002FF4D170
:104BB0006C6F002C16D06068276800280CD0FFF7B7
:104BC0003DF821000420FEF771FC002F0AD03C00C4
:104BD000606827680028F2D121000420FEF766FCF7
:104BE000002FF4D1002E2CD12B7D012B45D0290094
:104BF0000220FEF75BFC5B46002B03D00D214846EC
:104C00004942D84707B0F0BCBB46B246A946A046C9
:104C1000F0BD29001C48FFF70FFF01221B4B1A7043
:104C200092E71B4A1368834208D1C36813600023CC
:104C3000EB6086E7DA68AA421CD01300002BF9D19A
:104C4000F5E72B8B51460293434601932B1D0093AE
:104C500028002B00059A02F051FDC5E729000D48F8
:104C6000FFF7EAFE2B7D012B07D029000220FEF77B
:104C70001DFCC7E7EA68DA60D9E707480CF0CCFA10
:104C800006480CF0C9FAC04604D8002071D80020AC
:104C900008D8002018D80020A45F01108C620110F1
:104CA00010B50121FFF72CFF10BDC046F0B5C64678
:104CB000060000B50220FEF7D9FB041E2AD0A4226C
:104CC000002120000EF06EFA6423624A6675E252FB
:104CD000614B4022A362FF23E372F93BA352E387B7
:104CE0005E4B443223635E4B1B6823625D4B1B7833
:104CF000A3775D4BA3645D4BA35094235C4AE250C1
:104D00005C4A0433E25009220433E250200080BCA4
:104D1000B846F0BD584B082798461D68002D0AD0AC
:104D20002800438BED681F42F8D0BB434383FFF755
:104D300083FA002DF4D1514B1B68002B11D00021B8
:104D4000474A10681A6A821A914201D811001C0061
:104D5000DB68002BF6D1002C03D001212000FFF7E7
:104D6000CFFE0220FEF782FB041EA8D143461B683B
:104D7000002B16D03A4A0021106802E0DB68002BB5
:104D800009D01A7D092AF9D11A6A821A9142F5D8F6
:104D900011001C00F2E7002C03D000212000FFF7D7
:104DA000AFFE0220FEF762FB041E00D087E74346F9
:104DB0001B68002B16D02A4A0021106802E0DB682D
:104DC000002B09D01A7D082AF9D11A6A821A914259
:104DD000F5D811001C00F2E7002C03D000212000C0
:104DE000FFF78EFE0220FEF741FB041E00D066E7AF
:104DF00073B2002B2BDB002E22D0320043461B68FF
:104E0000013AD2B2002B1BD015490F680021884609
:104E100007E0186A3A1A90461C000A00DB68002B6B
:104E200008D0597D8A42F4D8F8D1186A3D1AA845AD
:104E3000F4D8EFE7002C03D001212000FFF760FE3B
:104E40000220FEF713FB041E00D038E75EE77F2246
:104E5000D4E7C046A02D0000A02DA02DFFFF180212
:104E600014D8002073D800200100A02D0950001094
:104E700000DD6D00F824010004D8002018D80020BF
:104E800030B5040085B0002800D19DE0037D0029E5
:104E900003D0042B1AD0072B18D0012B00D168E0C7
:104EA000022B4AD0002B5DD1E38A002B4FD04B4A16
:104EB0001368A34205D184E0DA68A24200D17DE004
:104EC0001300002BF8D10023E36040E0A36F002B18
:104ED00044D0638BDB0600D479E0238B626A216DBA
:104EE0000293E38A20000193231D0093230002F024
:104EF00005FC237D012B04D90A2B02D02000FFF7EB
:104F0000C5F9374A1368A34214D1E368136000233C
:104F10000122E360334B1A70334B1B68A34225D048
:104F2000237D012B13D131480CF076F9DA68A242C7
:104F300041D01300002BF9D1E9E721002848FFF701
:104F40007BFD0122274B1A70237D012BEBD0210022
:104F50000220FEF7ABFA002005B030BD244B228DB5
:104F60009A42B6D12000FFF767F9F5E701F0C6FFD6
:104F7000F1E7204900200D000C354B681B68002B21
:104F800005D0DA6F944211D0DB68002BF9D10431DF
:104F90008D42F2D121001848FFF74EFD237D012BF1
:104FA00018D021000320FEF781FAD4E7D867DB6828
:104FB000002BE6D1EBE7E268DA60A8E7E268DA60A6
:104FC00081E7E36813607EE70C480CF025F90C4894
:104FD0000CF022F90B480CF01FF9C04608D800204D
:104FE00004D8002071D800200CD80020A45F011044
:104FF000A02D00005077011010D80020C0620110D1
:10500000E0620110FC620110F0B5C6460800140011
:1050100000B500294AD0002A2CD013890A7D012A24
:1050200047D0098D264A5B189BB293421ED91300C4
:105030009046476A468E234AC56A0385B844311CA8
:10504000964200D9111C424689B24919511A21D5FC
:10505000ED1B1CD480235B029D422DD24585200090
:10506000FEF7ECFD002080BCB846F0BD9942DED8CA
:105070001A00DDE7002BF5D10B7D012B03D01022A8
:105080004B8B13434B830121FFF7FAFEEBE7002321
:105090004385E4E743850C4B521B9A42DFD9022239
:1050A000438B1343438302F05BFCD8E7102040425C
:1050B000D9E706480CF0B0F805480CF0ADF8C0464A
:1050C000A02D0000D0160000670B0000F85F011053
:1050D000DC5F0110F8B5041E32D00023866F777BA9
:1050E00083678433C558002D0CD000233200210083
:1050F0000069A84700280BD00D301ED00520A667F8
:105100004042F8BD3189FFF76DF93000FEF796FD9A
:10511000BF0610D5238D0C4A934201D0013323855D
:105120008423E558002D06D00023002221002069A9
:10513000A8470D3001D00020E3E70D204042E0E712
:1051400010204042DDE7C046A02D0000F0B54F46DC
:105150004646D646C0B5204D204F2B7801332B70E4
:105160001F4B9946012398464B461C68002C1BD0C8
:1051700008262B78A27F9A421BD04246A377638BE6
:105180001A421ED11E4216D1E3689A46A36F002B25
:1051900007D0002320003B70FFF79CFF3B78002BDB
:1051A000E2D15446002CE4D1E0BCBA46B146A84650
:1051B000F0BDE468F6E7B34320006383FFF73CF8F3
:1051C000E2E7022213436383200002F0C9FB0322BB
:1051D000638B93436383D5E773D8002071D8002095
:1051E00004D8002010B5FFF7B1FF054A137801334A
:1051F000DBB21370DB0700D410BDFFF73FF9FBE70C
:1052000072D8002010B5002806D0054B054A186852
:1052100012688018186010BD03480BF0FDFFC046EF
:105220003410002014D800201863011010B5002A93
:1052300010D000290DD00A8E002A0AD0131C282A6B
:1052400000D22823283B1A1C9BB2834200D9021C9F
:1052500090B210BD01480BF0DFFFC046346301106F
:1052600070B505000E00002802D00368002B00D1A5
:1052700070BD1D4A1068002804D10CE0002C0AD033
:1052800020002B680268C4689342F7D10121FFF720
:1052900037FC002CF4D1154B1C68002C0AD0226876
:1052A0002B682000E4689A42F7D10121FFF728FC1F
:1052B000002CF4D1002EDBD03368002BD8D00C4B5F
:1052C0001A68002AD4D02B681168994205D0D26898
:1052D000002ACDD011689942F9D133681360D268A1
:1052E000002AF0D1C4E7C04604D8002008D8002026
:1052F00010D8002070B5446F0600002C18D06068EC
:10530000256800280CD0FEF799FC21000420FEF748
:10531000CDF8002D0AD02C00606825680028F2D155
:1053200021000420FEF7C2F8002DF4D1002373679A
:1053300070BDC046F0B5C64600B5002800D1C4E037
:10534000634B1D88002D31D0624B9C460023624682
:105350001380614B1F68614B1C88002F00D16FE0E8
:105360005F490023002288461600954200D8A2E03B
:10537000531CB1B29BB28C421BD8191B0139C9B264
:10538000795C01291BD002291DD000290CD09C4238
:105390004DD953490968CB181B7D012B00D890E0EB
:1053A0009A1892B20123DFE76246138080BCB846A8
:1053B000F0BD414609688919097D0129E3D11A0028
:1053C00001360123D1E7911C89B29C4221D9444E78
:1053D0003668F3181B7D042B20D14B1CAB421DDA21
:1053E000D31C04329BB292B28C421AD8091BC9B2A8
:1053F0007E5C36029C421ED81B1BDBB2FB5C334337
:10540000591E384E89B2B14200D9374B4386012329
:10541000AAE71B1BDBB2FB5C042BDED063461980C2
:10542000C4E72F4E366871180E7D3602E2E71B1B6B
:10543000DBB2FB5CB1E72A490968CB181B7DDEE7CC
:10544000274B00221E68002314001434954232D9E1
:10545000315D531C9BB2012926D0022909D00029B5
:10546000A2D0F3181B7D012B2BD99A1892B20123DD
:10547000EAE7F3181B7D911C89B2042BCED14B1C9B
:10548000AB42CBDAD41C7118A4B20B7D3419217D48
:105490001B020B43591E134C043289B292B2A14233
:1054A00006D843860123CFE71A0001340123CDE754
:1054B0000D4B4386F6E7002B00D177E763461A8051
:1054C00074E7634602321A8070E708480BF0A4FEC6
:1054D0005AD8002056D8002020D8002058D80020C4
:1054E0001CD80020B3050000B40500005C63011067
:1054F000F0B5D6464F46464605000C00C0B500281C
:105500005CD0C368587B1A7B00021043FDF762FA37
:10551000C0074FD401239A46FE339846294E32687D
:10552000E36894465A79197912020A4399792889CD
:1055300009041143DA792789120660440A43811A63
:10554000C91B2DD4587B1A7B00021043FDF742FA89
:105550005346034207D127682000FFF73DFA002F8A
:1055600017D03C00DBE7EB68587B1F7B000207434A
:105570000120FDF72FFA41463843EA6883B22768D5
:1055800008401B0A107353732000FFF725FA002F01
:10559000E7D100242C60E0BCBA46B146A846F0BD75
:1055A000101AF7D56346D21A91B268682981FEF7BE
:1055B00089FAEFE72000FFF7F3F9EAE702480BF07A
:1055C0002BFEC046E0D6002078630110F0B55746A8
:1055D000DE464E464546E0B583B007000C1E0192FC
:1055E00046D02D4B9B46662398462C4B9A465B46ED
:1055F000E1681D684A790B7912021A438B79C879E0
:105600001B04134300061843FDF7E8F9238906003D
:105610009946E368AD1B587B1A7B00021043FDF7E7
:10562000D9F94B46ED1A03231840431E98412D1A11
:105630002AD460682568FEF70DFB4346FB5A984262
:1056400027D842461B1ABB52524623891288200093
:105650009B1852461380FFF7BFF94346FB5A002BB5
:105660000ED0002D01D02C00C1E7019B002B0DD0E6
:10567000002003B0F0BCBB46B246A946A046F0BD30
:10568000002DF5D02C00B2E72000F2E704480BF023
:10569000C3FD04480BF0C0FDF417002054D80020CF
:1056A000C8630110A0630110F0B5DE4657464E46B0
:1056B0004546E0B5017D040083B0032901D800F020
:1056C000B0FCA64B1A680193A54B1B78DB064ED4A1
:1056D000A44B984643461F88019B1A68002F00D1AF
:1056E0008DE0217D636A062900D989E0991AD01AD4
:1056F0004D1E00D546E1461EFE4200D542E19A4DC0
:105700006868002801D100F0B9FC984B994201D992
:1057100000F0B1FC028989B28A4201D200F0A8FCF3
:105720002B89521A5B1A2B81438992B2994208D96C
:105730000027478102810068C91A438989B28B42D8
:10574000F7D3FEF729FA636A019A190A1360EA6827
:10575000517119021371090E1B0E9171D371238DB2
:10576000002B00D058E2200002F0D4F84FE0602374
:10577000C35A7F4D9946836D9A46436D28689F1A98
:1057800054D493424FD04B46D346824500D1A9E131
:10579000666CB446371A5DD4724E3788B046002F17
:1057A00000D1CFE0636B002B9CD0A26B121A91D575
:1057B00098B2704A3C23E15E1788CA1092B2BB1AB5
:1057C0001B1A9BB259180DB219B2A587002902DA2B
:1057D000D21B83189BB23E22A15EED108A10891A5B
:1057E00040225B189BB2E3875B19A35200236363DB
:1057F00043461F88019B1A68002F00D071E7636A37
:10580000D11A0BD4218D013BCB189B1A06D403B0BF
:10581000F0BCBB46B246A946A046F0BD0222638B4F
:1058200013436383F3E753461B1AACD5524B1B68F3
:105830009F7BDB7B1B023B436027E3530237E65B26
:105840009E4200D2E353666C8346B4466265A0650F
:10585000371AA1D5F343C34200D54EE1236D1B1A7D
:1058600000D54AE14A23E75A463B1900628B1140B2
:105870008846134200D069E1E68F4433B1464026A2
:10588000E35A9A463C21635E4146DB104B44A353E6
:1058900063460236C31AA1539BB26064BA4501D372
:1058A00000F0DEFB80200001024050424241608E49
:1058B00001325043021C80B2984200D91A1C1300D6
:1058C00053449BB2534500D27DE14822A352E26E7D
:1058D000216F2000FFF77AFEE16E020020672000B2
:1058E000FFF774FE276FE0667B427B415B422386B5
:1058F00000232377002800D16AE164211F4A635AFC
:1059000012889B186352638B1A0500D4F8E0002FAD
:1059100000D1BCE2F9684A790B7912021A438B79FB
:10592000C8791B04134300061843FDF757F8E36CCE
:10593000C01A00D5E4E0638B114A13406383094B1E
:105940009846DFE049465B4451448B4200D1E4E095
:10595000636B002B00D028E7636A51E7E0D6002094
:1059600068D800205CD80020182D0020FEFF000021
:10597000F417002014D800201CD8002054D8002090
:10598000FFF7FFFF002800DAC2E0218DE94200D5D1
:10599000E9E69A4200D168E3676F002F00D17BE20D
:1059A000F868437901791B020B4381790904194393
:1059B000C3791B060B43934200D10CE1551EAC4644
:1059C000D11A00D5ABE23D68002D29D0E8684379B3
:1059D00001791B020B43817909041943C3791B0622
:1059E0000B43934200D1F8E0F9688A460979894669
:1059F00051464E46497909020E43514689790904B8
:105A00000E435146C979090631436646711A03D4DB
:105A1000991A012900D4B6E02F003D68002DD5D198
:105A20009B1A00D49FE6037B407B00021843FCF7DF
:105A3000D1FFC00700D596E6D248FEF7DBFF3860FD
:105A4000002800D18FE6F868019B41791A68037934
:105A50000902194383791B040B43C17909061943D1
:105A60003B895B18D31A00D5D2E243461988636A92
:105A70005B1A218D5B189B1A00D474E63B68DB68C7
:105A8000587B1A7B00021043FCF7A4FF3B68C00759
:105A900000D5CCE2019E228D31685868521A616AA5
:105AA000891889B21981FEF70DF83B681D89DB68FA
:105AB000587B1A7B00021043FCF78CFF0322030083
:105AC00013405A1E93414246EB189BB21380326832
:105AD000616A9B18228D5218934200D143E6AA486E
